:020000040800F2
:10300000B814002061410008694100086B410008C4
:103010006D4100086F410008714100080000000088
:1030200000000000000000000000000073410008E4
:103030007541000800000000774100087941000850
:1030400077330008793300087B3300087D330008AC
:10305000A5330008A7330008A9330008AB330008E4
:10306000AD330008AF330008413400087B4100084D
:103070007B4100087B4100087B4100087B41000840
:103080007B4100087B4100087B4100087B41000830
:103090007B4100087B4100087B4100085B3400084D
:1030A0007334000875340008773400087934000858
:1030B0007B3400080D3500082D3500084B3500081D
:1030C0004D3500084F3500085135000853350008CC
:1030D0005535000857350008593500088D3500086A
:1030E0008F350008BF350008C135000800F002F830
:1030F00000F05CF80AA090E8000C82448344AAF136
:103100000107DA4501D100F051F8AFF2090EBAE833
:103110000F0013F0010F18BFFB1A43F0010318470B
:1031200008050100280501000A444FF0000C10F8C2
:10313000013B13F0070408BF10F8014B1D1108BF35
:1031400010F8015B641E05D010F8016B641E01F8D5
:10315000016BF9D113F0080F1EBF10F8014BAD1C25
:103160000C1B09D16D1E58BF01F801CBFAD505E043
:1031700014F8016B01F8016B6D1EF9D59142D6D39D
:10318000704700000023002400250026103A28BFC5
:1031900078C1FBD8520728BF30C148BF0B607047C9
:1031A0001FB507F099F81FBD10B510BD07F0D0F896
:1031B0001146FFF7F5FF00F071F807F0EEF803B4E1
:1031C000FFF7F2FF03BC07F0BDF8000010B503F0F5
:1031D00044FE04F063F84FF4707000F0C2FD00226A
:1031E0000121880702F061FD00220121464802F01A
:1031F0005CFD00220121454802F057FD30BF10BDA3
:1032000010B5802000F0ADFD01221146900702F0BC
:103210004CFD012211463C4802F047FD01221146B7
:103220003A4802F042FD10BD02466423002105E049
:10323000505C08B948B27047481CC1B29942F7DBEC
:103240006420F8E7F0B503460C460FF2C40C1E46A6
:10325000214625460A2A06D1002B04DA2D2001F842
:10326000010B0D465E4200BFB6FBF2F002FB1060A0
:103270001CF8000001F8010BB6FBF2F6002EF3D1AA
:10328000002001F8010905E02F78087805F8010B06
:1032900001F801798D42F7D32046F0BD10B598B002
:1032A00000F0A8FD012024490870802000F059FD9D
:1032B00003F0D3FD102321A20021084604F07FF87B
:1032C00003F0ECFF16A804F0C4FB16A901A805F052
:1032D00041F901A805F040F9044674B90523C82254
:1032E0004FF48071184800F0AEFC214617A006F09C
:1032F0008EFE4FF0FF3018B010BD03E001E006F085
:10330000F5FBFCE7FAE7000000040040000800407D
:10331000303132333435363738396162636465664B
:103320006768696A6B6C6D6E6F70717273747576B5
:103330007778797A0000000028000020496E6974CF
:103340006961746F723A0000000C0140504E3533D1
:103350003220626567696E206572726F723A20254D
:10336000640D0A0070477047704770477047704798
:1033700070477047704770477047704710B501201D
:1033800002F02EF868B1012002F03AF820218D48B1
:1033900001F0A9FC044621468BA006F038FE01F09E
:1033A000F1FF10BD7047704770477047704710B508
:1033B000082001F08BFB002841D08548006800F010
:1033C000080038B1082000F08FFB00F061FD814952
:1033D000086031E00C2000F087FB00F059FD7E49C9
:1033E0000860084600687B490968884211D37A481A
:1033F000006878490968401AB0F5FA6F03D30120D4
:103400007649087018E076480078401C74490870C6
:1034100012E070480068C0F1FF306F490968084445
:10342000B0F5FA6F03D301206C49087004E06C48D2
:103430000078401C6A490870082001F058FB10BD54
:1034400070477047704770477047704770477047C4
:103450007047704770477047704710B5202001F0E3
:1034600035FB28B1202001F042FB5EA006F0CFFD25
:1034700010BD704770477047704710B5012188072D
:1034800002F0C1FE002840D00121880702F0CCFEE6
:103490005C480068401E5B4908605B480068012882
:1034A00017D15A480068002803DA594800680028F4
:1034B0000FDD57480068401E5549086008460068FF
:1034C00038B952480068401E504908603B205049B6
:1034D00008604C48006838B94E480068401E4D49A5
:1034E00008603B20474908604A48006838B94A48A4
:1034F0000068401E484908603B204649086047482C
:103500000078012801D106F033FA10BD10B5012171
:10351000434802F078FE40B10121414802F084FEA8
:10352000404800680A303F49086010BD10B50121CD
:103530003D4802F068FE38B101213B4802F074FEBC
:1035400002213A4801F0EBFB10BD7047704770470D
:10355000704770477047704710B540F225513448A6
:1035600003F026F830B1324802F0A2FFC4B2204680
:1035700004F0A8F940F227712D4803F019F820B99A
:1035800040F226612A4803F013F810BD704710B5C9
:103590004FF4004001F09AFA80B14FF4004001F07E
:1035A000A6FA4FF40041074801F09DFB18B98020AE
:1035B00000F0B5FB02E0802000F0D3FB10BD7047A7
:1035C000704700000008014025640D0A000000005B
:1035D0000C0401404C0000204800002001000020A5
:1035E0000000002074686973206973206120657889
:1035F00069743520696E74657272757075740D0A20
:103600000000000034000020B00200204000002034
:1036100044000020380000203C0000200200002070
:10362000000400405400002000080040000C01404D
:103630000044004008B54FF4C06000F0B1FD252003
:103640008DF8000001208DF8010007208DF80200A0
:1036500001208DF80300684600F0A7FD26208DF8B4
:10366000000000208DF801008DF8020001208DF887
:103670000300684600F099FD1C208DF80000012031
:103680008DF8010006208DF8020001208DF803005E
:10369000684600F08AFD1D208DF8000001208DF89D
:1036A000010004208DF8020001208DF80300684617
:1036B00000F07BFD1E208DF8000001208DF8010038
:1036C00005208DF8020001208DF80300684600F007
:1036D0006CFD09208DF8000001208DF8010000200C
:1036E0008DF8020001208DF80300684600F05DFDB2
:1036F00028208DF8000001208DF8010000208DF8B1
:10370000020001208DF80300684600F04EFD1720EE
:103710008DF8000001208DF8010000208DF80200D6
:1037200001208DF80300684600F03FFD03208DF86E
:10373000000001208DF8010007208DF80200012013
:103740008DF80300684600F030FD08BD08B5012182
:10375000084601F04AFD01210C2001F053FD012132
:1037600044F2012001F04EFD0121480401F057FD13
:103770004FF40070ADF8000003208DF8020018200F
:103780008DF803006946F74801F01AFA4FF480609B
:10379000ADF8000004208DF803006946F14801F0FF
:1037A0000FFA0420ADF8000003208DF80200182065
:1037B0008DF803006946EB4801F002FA0820ADF8E5
:1037C000000004208DF803006946E64801F0F8F98E
:1037D0004FF45070ADF8000003208DF80200102067
:1037E0008DF803006946E04801F0EAF94FF4807073
:1037F000ADF8000003208DF8020010208DF80300C2
:103800006946D84801F0DCF94FF43040ADF80000CB
:1038100003208DF8020010208DF803006946D2487D
:1038200001F0CEF90220ADF8000003208DF802006F
:1038300010208DF803006946CA4801F0C1F9202024
:10384000ADF8000048208DF803006946C54801F036
:10385000B7F94020ADF8000048208DF80300694614
:10386000C04801F0ADF94FF40060ADF8000003204E
:103870008DF8020010208DF803006946BA4801F067
:103880009FF90121B94801F06CFA0820ADF8000059
:1038900003208DF8020048208DF803006946B248E5
:1038A00001F08EF90220ADF8000003208DF802002F
:1038B00010208DF803006946AB4801F081F98020A3
:1038C000ADF8000003208DF8020010208DF80300F1
:1038D0006946A44801F074F94FF40040ADF80000C7
:1038E00048208DF8030069469E4801F069F90120DF
:1038F000ADF8000000208DF8030069469A4801F0F9
:103900005FF908BD3EB5044647F6FF70844200DB10
:103910003EBD0121042001F082FC954801F07AFDB2
:103920000120C0EB440080B2ADF80400914800686B
:103930004FF4FA61B0FBF1F0401E80B2ADF8000028
:103940000020ADF80600ADF802006946884801F095
:1039500035FE0121864802F053FC012211468448BD
:1039600002F0A3F98248008840F0080080490880EE
:1039700001217F4802F07EF900BFC9E70EB50121A1
:10398000022001F04CFC7C4801F044FD1420ADF80D
:103990000400784800684FF4FA61B0FBF1F0401E73
:1039A00080B2ADF800000020ADF80600ADF80200CE
:1039B0006946714801F002FE01216F4802F020FCC7
:1039C000012211466C4802F070F901216A4802F0A8
:1039D00051F90EBD3EB505460C460121084601F0E1
:1039E0001EFCADF80450ADF800400020ADF8060014
:1039F000ADF8020069464FF0804001F0DFFD012183
:103A0000880702F0FDFB01221146900702F04DF9F4
:103A10000121880702F02EF93EBD10B500220121D8
:103A2000880702F042F910BD10B501221146900737
:103A300002F03BF910BD00B585B04FF4E1300190C4
:103A40000020ADF80800ADF80A00ADF80C00ADF8A4
:103A500010000C20ADF80E0001A9484802F02BFC24
:103A60000121464802F0B3FC4FF40070ADF80000AD
:103A700003208DF8020018208DF8030069463948AC
:103A800001F09EF84FF48060ADF8000004208DF83E
:103A900003006946334801F093F801A9384802F061
:103AA0000AFC012240F22551354802F09CFC01211C
:103AB000334802F08CFC0420ADF8000003208DF8A0
:103AC000020018208DF803006946264801F078F8B6
:103AD0000820ADF8000004208DF803006946214855
:103AE00001F06EF805B000BD1CB5044603210120AD
:103AF00001F07CF90820009000208DF804008DF87A
:103B0000054001208DF80600684600F079FF1CBDD5
:103B10001CB50F21002001F069F94FF4004000901E
:103B200000208DF8040010208DF8050001208DF88C
:103B30000600684600F064FF1CBD1CB5052100208E
:103B400001F054F92020009000208DF804000C2092
:103B50008DF8050001208DF80600684600F050FF42
:103B60001CBD000000080140000C014000023000B4
:103B700000080040580000200004004000380140C8
:103B80000044004000B58BB0B04800F001FEB048E2
:103B900000680090AF480190002002900A20039036
:103BA000002004908020059040000690800007903F
:103BB000202008900002099000200A906946A3483E
:103BC00000F088FE0121A14800F0AFFE0BB000BD5F
:103BD00000B585B00020009001208DF804008DF81C
:103BE00005004FF4602002900020039001208DF822
:103BF00010006946984800F068FB03230122082161
:103C0000954800F0FAFB0121934800F095FB012153
:103C1000914800F086FB904800F0A5FB00BF8E485D
:103C200000F0A6FB0028FAD18B4800F0ABFB00BFE8
:103C3000894800F0ACFB0028FAD10121864800F049
:103C4000B0FB05B000BD2DE9F04106460F46154614
:103C50001C467CB90DE03946304601F05EF8284636
:103C600000F032F93946304601F059F8284600F0A4
:103C70002BF9F0E70DE03946304601F04EF82846C2
:103C800000F022F93946304601F049F8284600F0A4
:103C90001BF92000A4F10101CCB2ECD1BDE8F08108
:103CA00010B5002401214FF0C05001F0B8FA0120F6
:103CB00001F0DFF800F00AFD012001F010FA00E049
:103CC000641C6648006A00F0020018B941F28830AE
:103CD0008442F5D341F28830844207D30523C822B9
:103CE0004FF400715E48FFF7AEFF10BD4FF48070D7
:103CF00001F011FA012001F014FA01F04CFB01F07F
:103D000041FB0121084601F0E1FA01F03BFB47F6D7
:103D1000FF7001F011FB01F035FB00BFE5E770B566
:103D200005462C4604F0800018B180214D4800F073
:103D3000F4FF04F0400018B14021494800F0EDFFC5
:103D400004F4807020B14FF48071454800F0E5FF25
:103D500004F4007020B14FF40071414800F0DDFF21
:103D600070BD70B505462C4604F0800018B1802166
:103D70003C4800F0D4FF04F0400018B1402138481E
:103D800000F0CDFF04F4807020B14FF4807134480E
:103D900000F0C5FF04F4007020B14FF4007130480A
:103DA00000F0BDFF70BD10B54FF400612C4800F06D
:103DB000B4FF10BD10B54FF40061294800F0AFFF0B
:103DC00010BD10B504460221254800F0A6FF20468C
:103DD000FFF798FD10BD10B50221224800F09DFFAD
:103DE00010BD10B502211F4800F099FF10BD01461B
:103DF0000888704710B5FFF71DFCFFF7A7FCFFF719
:103E0000D2FFFFF718FE1848006842F21071B0FBAD
:103E1000F1F0401E84B2214642F20F70FFF7DAFD46
:103E2000FFF7ACFD0C20FFF75FFEFFF771FEFFF719
:103E3000A9FEFFF7CDFEFFF7CEFF03F067FC05F00C
:103E4000B5FB0AA006F0E3F810BD00000800024030
:103E500050000020400E00200024014000100240CD
:103E6000000C014000080140580000200D0A506875
:103E700065726970686572616C20496E6974696108
:103E80006C20537563636573732E2E2E0D0A00002C
:103E900014490868704710B502460B46FFF7F8FF53
:103EA0000446944206D3A01A984201D3012010BDC3
:103EB0000020FCE7C2F1FF302044401C984201D3AF
:103EC0000120F4E70020F2E730B50446FFF7E0FFF9
:103ED000054600BF21462846FFF7DDFF0028F9D040
:103EE00030BD0000540000200CB50020019000906F
:103EF0009148006840F480308F49086000BF8E48C8
:103F0000006800F4003000900198401C0190009877
:103F100018B90198B0F57F4FF1D18748006800F4D7
:103F2000003010B10120009001E0002000900098C6
:103F3000012844D18148006840F010007F490860A2
:103F40000846006820F0030008600846006840F05A
:103F50000200086078484068774948600846406831
:103F600048600846406840F4806048600846406801
:103F700020F47C1048600846406840F4E81048602F
:103F80000846006840F08070086000BF6A4800681A
:103F900000F000700028F9D06748406820F0030066
:103FA000654948600846406840F00200486000BF2C
:103FB0006148406800F00C000828F9D149E05E48EB
:103FC000006820F480305C4908605C48006840F07C
:103FD00010005A4908600846006820F00300086095
:103FE0000846006840F002000860534840685249A3
:103FF00048600846406848600846406840F4806071
:1040000048600846406820F47C10486008464068D4
:1040100040F4601048600846006840F08070086016
:1040200000BF4548006800F000700028F9D0424801
:10403000406820F00300404948600846406840F06E
:104040000200486000BF3C48406800F00C000828AF
:10405000F9D10CBD10B5FFF747FF10BD10B53648BC
:10406000006840F00100344908600846406834495F
:1040700008403149486008460068324908402E49E6
:1040800008600846006820F4802008600846406800
:1040900020F4FE0048604FF41F008860FFF7DAFF4D
:1040A00029482A49086010BD10B5002100200022CF
:1040B000214B5B6803F00C0121B1042906D00829CB
:1040C00028D107E0224B234C236027E0204B214CD2
:1040D000236023E0184B5B6803F47010164B5B6899
:1040E00003F48032022303EB904022B91A4B43437E
:1040F000184C23600DE0104B5B6803F4003323B1D0
:10410000154B4343134C236003E0114B4343114CC5
:10411000236003E00E4B0F4C236000BF00BF064B33
:104120005B68C3F303130D4CE15C0A4B1B68CB4087
:10413000084C236010BD0000001002400020024027
:104140000000FFF8FFFFF6FE0030000808ED00E079
:1041500000127A005800002000093D005C00002099
:104160000948804709480047FEE7FEE7FEE7FEE70B
:10417000FEE7FEE7FEE7FEE7FEE7FEE70448054947
:10418000054A064B704700005D400008ED3000080E
:10419000B80E0020B8140020B8100020B81000207D
:1041A00031490143314A1160704770B50021002345
:1041B0000F22C47804B32D4C246804F4E064C4F5E1
:1041C000E064210AC1F10403CA40447804FA03F10F
:1041D0008478144021430901254C0678A1550478C0
:1041E00004F01F050124AC4005786D11AD0005F108
:1041F000E025C5F8004109E0047804F01F0501241A
:10420000AC401C4D0678761145F8264070BD1A4A20
:104210000A400243154B1B1F1A60704739B1134AFD
:10422000121D12680243114B1B1D1A6006E00F4A53
:10423000121D126882430D4B1B1D1A607047042823
:1042400008D14FF0E021096941F004014FF0E0226C
:10425000116107E04FF0E021096921F004014FF0FE
:10426000E0221161704700000000FA050CED00E04B
:1042700000E400E080E100E080FFFF1F10B504468D
:10428000FA48844208D10121401500F0D5FF0021F1
:10429000601500F0D1FF17E0F548844208D10121F4
:1042A000001500F0C9FF0021201500F0C5FF0BE04C
:1042B000F048844208D10121C80300F0BDFF00216D
:1042C0004FF4004000F0B8FF10BD30B502460020AA
:1042D00000235068E84C20400D790C6844EA05241E
:1042E000204350609068E54C2040D1E902542C43B3
:1042F0004D7944EA450420439060D06A20F4700070
:104300000C7C641EE4B2234340EA0350D06230BD0B
:1043100000210160017141718160C160012101745E
:10432000704721B1826842F00102826003E0826836
:1043300022F001028260704721B1826842F48072EB
:10434000826003E0826822F480728260704710B558
:104350000023CBB21AB144681C43446002E04468B5
:104360009C43446010BD816841F008018160704742
:10437000014600208A6802F008020AB1012000E02C
:1043800000207047816841F0040181607047014658
:1043900000208A6802F004020AB1012000E0002037
:1043A000704721B1826842F4A002826003E0826813
:1043B00022F4A00282607047014600208A6802F45D
:1043C00080020AB1012000E00020704710B50A46C3
:1043D00000210023416821F46041531E41EA43312A
:1043E000416010BD21B1426842F40062426003E0C6
:1043F000426822F4006242607047F0B504460D4600
:1044000000200021092D11DDE068A5F10A0606EB68
:104410004607072606FA07F18843A5F10A0606EBC8
:10442000460603FA06F10843E0600CE0206905EB5C
:104430004507072606FA07F1884305EB450603FA08
:1044400006F108432061072A0FDA606B561E06EB5F
:1044500086071F2606FA07F18843561E06EB8606D6
:1044600005FA06F10843606322E00D2A0FDA206B9B
:10447000D61F06EB86071F2606FA07F18843D61FCC
:1044800006EB860605FA06F10843206310E0E06AB1
:10449000A2F10D0606EB86071F2606FA07F18843F0
:1044A000A2F10D0606EB860605FA06F10843E06266
:1044B000F0BD21B1826842F48012826003E082681C
:1044C00022F48012826070470146C86C80B2704747
:1044D00066484C300068704721B1426842F48062FF
:1044E000426003E0426822F480624260704721B17A
:1044F000426842F48052426003E0426822F48052F3
:10450000426070470A460021816821F4E04111436E
:104510008160704721B1826842F40042826003E00A
:10452000826822F400428260704721B1826842F4BE
:104530000212826003E0826822F4021282607047F5
:10454000014600208A6802F400120AB1012000E04E
:1045500000207047F0B504461546002000220026D2
:10456000092911DDE068A1F10A0707EB470C0727CD
:1045700007FA0CF29043A1F10A0707EB470703FA89
:1045800007F21043E0600CE0206901EB410C0727C3
:1045900007FA0CF2904301EB410703FA07F21043CC
:1045A0002061A06BC0F30156EF1C06F1010CA7EBD4
:1045B0000C0707EB870C1F2707FA0CF29043EF1C40
:1045C00006F1010CA7EB0C0707EB870701FA07F2CE
:1045D0001043A063F0BD10B50A4600210023816B93
:1045E00021F44011531E41EA0351816310BD08B507
:1045F000002300930090009B0B440093009B1A60E3
:1046000008BD08B5024600200090009201F1280084
:10461000009B184400900098006880B208BD0A46CC
:1046200000214168164B19401143416070474162B7
:10463000826270470A460021416821F01F01114340
:104640004160704740B109490831096841F40001EF
:10465000064A0832116007E004490831096821F46C
:104660000001024A08321160704700000024014036
:1046700000280140003C0140FFFEF0FFFDF7F1FF84
:10468000FFFD3FFF0246002013680B400BB10120E5
:1046900000E000207047CA430260704770B50246D0
:1046A0000020002300240B125568CEB205EA060450
:1046B00015681D4015B10CB1012000E0002070BD4F
:1046C00000220A12D34303607047000010B5012096
:1046D00000F0CCFD002000F0C9FD10BD2A490860A3
:1046E00070472949091F08607047274984310860CD
:1046F000704701460020254A10884FF67F4210403F
:104700000843224A10807047014600201F4A108843
:104710004FF68072104008431C4A1080704708B55D
:1047200000220092194A2C3A0092009A0244009208
:10473000009A116008BD08B501460020009013489A
:104740002C3800900098084400900098008808BD1C
:104750000D489C300068C0B270470C480830008893
:1047600040F0010009490831088070470648A03030
:104770000068C0B2704705480830008840F0020069
:10478000024908310880704704860D422C6C0040B5
:1047900001684FF6FE721140016000210160416026
:1047A0008160C1608D49884208D18C4908394968C7
:1047B00041F00F01894A083A51608AE08749143173
:1047C000884208D185490839496841F0F001834A97
:1047D000083A51607DE081492831884208D17F49FB
:1047E0000839496841F470617C4A083A516070E0C8
:1047F0007A493C31884208D178490839496841F4FE
:104800007041764A083A516063E0744950318842F9
:1048100008D172490839496841F470216F4A083A51
:10482000516056E06D496431884208D16B490839BE
:10483000496841F47001694A083A516049E06749A2
:104840007831884208D165490839496841F070617A
:10485000624A083A51603CE06149884206D1011F32
:10486000096841F00F01021F116032E05C49143108
:10487000884208D15A49091F096841F0F001584A95
:10488000121F116025E056492831884208D1544949
:10489000091F096841F47061514A121F116018E044
:1048A0004F493C31884208D14D49091F096841F4FC
:1048B00070414B4A121F11600BE049495031884248
:1048C00007D14749091F096841F47021444A121F62
:1048D0001160704710B50022026847F6F0739A43E2
:1048E0000C6A8B6823430C6923434C6923438C690E
:1048F0002343CC6923434C6A23438C6A23431A43E2
:104900000260CB6843600B6883604B68C36010BD76
:104910000021016041608160C1600161416181618C
:10492000C161016241628162704721B1026842F057
:104930000102026004E002684FF6FE731A40026052
:1049400070471AB103680B43036002E003688B43AE
:1049500003607047416070470146486880B2704705
:1049600001460020002201F080531BB11C4B083B84
:104970001A6802E0194B083B1A6802EA01030BB1FE
:10498000012000E00020704700F0805119B1144967
:10499000091F086002E01149083948607047014664
:1049A0000020002201F080531BB10D4B083B1A6818
:1049B00002E00A4B083B1A6802EA01030BB101202E
:1049C00000E00020704700F0805119B10449091F30
:1049D000086002E001490839486070470800024059
:1049E00008040240002044490860091D0860091DB0
:1049F0000860091D086041483F491431086070474C
:104A000000213D498279002A3AD00A46126803689B
:104A10009A430B461A600A1D126803689A430B1DDD
:104A20001A60027911440A6803681A430A60324A1C
:104A30000832126803689A432F4B08331A601A1D14
:104A4000126803689A432C4B0C331A604279102A7F
:104A50000ED11A1F126803681A43274B08331A60D5
:104A60001A1D126803681A43234B0C331A600DE0B9
:104A70002149427911440A6803681A430A6005E033
:104A8000027911440A6803689A430A60704700215A
:104A9000016001710C21417100218171704716493B
:104AA000103109680143144A103211607047014601
:104AB0000020114A143212680A400AB1012000E0B5
:104AC000002070470C4914310860704701460020EF
:104AD0000022094B1B6803EA0102074B14331B68D1
:104AE0000B4013B10AB1012000E0002070470249D9
:104AF000143108607047000000040140FFFF0F0000
:104B000010B50446CC48844208D10121042000F0AD
:104B100093FB0021042000F08FFB46E0C74884424D
:104B200008D10121082000F087FB0021082000F0B7
:104B300083FB3AE0C248844208D10121102000F0F2
:104B40007BFB0021102000F077FB2EE0BD48844263
:104B500008D10121202000F06FFB0021202000F06F
:104B60006BFB22E0B848844208D10121402000F0CC
:104B700063FB0021402000F05FFB16E0B348844255
:104B800008D10121802000F057FB0021802000F097
:104B900053FB0AE0AE48844207D10121801500F0A2
:104BA0004BFB0021A01500F047FB10BD10B5012103
:104BB000084600F041FB0021012000F03DFB10BD44
:104BC0002DE9F041024600250026002000230024A4
:104BD000002791F803C00CF00F0591F803C00CF00A
:104BE000100CBCF1000F03D091F802C04CEA05058F
:104BF00091F800C0BCF1000F31D0146800202BE008
:104C00004FF0010C0CFA00F3B1F800C00CEA0306F7
:104C10009E4220D183004FF00F0C0CFA03F7BC43E7
:104C200005FA03FC4CEA040491F803C0BCF1280F18
:104C300006D14FF0010C0CFA00FCC2F814C00AE0D7
:104C400091F803C0BCF1480F05D14FF0010C0CFAEC
:104C500000FCC2F810C0401C0828D1D31460B1F881
:104C600000C0BCF1FF0F34DD546800202EE000F1DD
:104C7000080C4FF0010808FA0CF3B1F800C00CEA78
:104C800003069E4221D183004FF00F0C0CFA03F76C
:104C9000BC4305FA03FC4CEA040491F803C0BCF1E0
:104CA000280F05D100F1080C08FA0CF8C2F814809E
:104CB00091F803C0BCF1480F07D100F1080C4FF088
:104CC000010808FA0CF8C2F81080401C0828CED35E
:104CD0005460BDE8F0814FF6FF71018002218170C0
:104CE0000421C17070470246002093680B400BB14D
:104CF000012000E0002070470146886880B27047BC
:104D000002460020D3680B400BB1012000E00020D8
:104D100070470146C86880B27047016170474161C1
:104D200070470AB1016100E041617047C16070479E
:104D30004FF480320A4382618161826182698269B3
:104D4000704702460020434B18684FF680731840A6
:104D500040EA021008433F4B186070473E49C86163
:104D60007047F0B50A46002300240021002500F01A
:104D70000046B6F1004F02D1364EF16901E0354EE2
:104D80007168C0F3034583B200F44016B6F5401FC6
:104D900008D121F070612F4E766826F070662D4F95
:104DA0007E6012E000F48016B6F5801F06D103265F
:104DB00006FA05F4A14341F0706106E0460D3601A4
:104DC00003FA06F6B14341F0706122B1460D360197
:104DD00003FA06F6314300F00046B6F1004F02D167
:104DE0001C4EF16101E01B4E7160F0BD30B5002238
:104DF0008B071C0F0F2303FA04F2164B08338C1099
:104E000053F824309343134C08348D1044F8253064
:104E100023468C1053F824308C07240F00FA04F436
:104E200023430C4C08348D1044F8253030BD0A491A
:104E3000DC3108607047000000080140000C0140B0
:104E4000001001400014014000180140001C014006
:104E500000200140000001400000204210B5012167
:104E6000080700F0F6F900214FF0805000F0F1F94A
:104E700010BD2A49086270472849086170470146F9
:104E80000020274A106820F0E000084310607047B7
:104E90002249A0310860704710B502460020204B1F
:104EA000186820F00300104318601E4B1B6843F085
:104EB00004031C4C2360012901D130BF00E020BF56
:104EC000184B1B6823F00403164C236010BD1448D4
:104ED000006840F00400124908600846006840F08D
:104EE000020008600F48006840F004000D490860A7
:104EF00000BF00BF30BF704701460020084A52681B
:104F00000A400AB1012000E0002070470449096806
:104F100041EA8001024A11607047000000000E4221
:104F20000070004010ED00E0DF48006840F0010034
:104F3000DD49086008464068DC490840DA494860B5
:104F400008460068DA490840D74908600846006802
:104F500020F4802008600846406820F4FE00486085
:104F60004FF41F0088607047CF49096821F48031F1
:104F7000CD4A11601146096821F480211160B0F515
:104F8000803F03D0B0F5802F0ED106E0C6490968F6
:104F900041F48031C44A116007E0C349096841F413
:104FA000A021C14A116000E000BF00BF704710B5EA
:104FB00001460022002300204A11012A02D1BA4CE6
:104FC000236806E0022A02D1B74C236A01E0B64CFE
:104FD000636A01F01F02012494401C400CB10120BF
:104FE00000E0002010BD38B500200090002400250E
:104FF00000BF3120FFF7DBFF05460098401C009002
:105000000098B0F57F4F01D0002DF2D03120FFF78E
:10501000CEFF08B1012400E00024204638BD01463F
:105020000020A14A106820F0F80040EAC10010609A
:105030007047A04908607047024600209A4B5868A4
:1050400020F47C1042EA01031843974B58607047E4
:1050500098490866704701460020934A506820F03E
:1050600003000843506070478F48406800F00C0010
:105070007047014600208C4A506820F0F000084339
:105080005060704701460020874A506820F4E06075
:1050900008435060704701460020834A506820F45E
:1050A000605040EAC1005060704729B17E4A527A90
:1050B00002437D4B5A7204E07B4A527A82437A4B18
:1050C0005A7270477B49D83108607047014600200A
:1050D000754A506820F440400843506070470021F2
:1050E000714A20321170704A82F82010012802D0D3
:1050F00004280AD104E001216B4A2032117005E036
:105100000521694A2032117000E000BF00BF7047DE
:105110006949086070476449096A0143624A11623B
:105120007047654944390860704730B50021002256
:10513000002400235C4D6D6805F00C0121B10429A9
:1051400005D0082923D105E05C4D056022E05B4DC8
:1051500005601FE0544D6D6805F47012524D6D6886
:1051600005F48034022505EB92421CB9544D554399
:1051700005600BE04C4D6D6805F400351DB1504DD8
:105180005543056002E04D4D5543056002E04B4D2F
:10519000056000BF00BF444D6D6805F0F0010909CE
:1051A000484D6B5C0568DD4045603F4D6D6805F41A
:1051B000E061090A434D6B5C4568DD4085603A4D0E
:1051C0006D6805F46051C90A3E4D6B5C4568DD4071
:1051D000C560354D6D6805F44041890B3A4D6B5CF7
:1051E000C568B5FBF3F5056130BD29B12E4A52699A
:1051F00002432D4B5A6104E02B4A526982432A4BE9
:105200005A61704729B1284A92690243264B9A6134
:1052100004E0254A92698243234B9A61704729B181
:10522000214AD2690243204BDA6104E01E4AD26966
:1052300082431D4BDA61704729B11B4AD268024391
:10524000194BDA6004E0184AD2688243164BDA60E0
:10525000704729B1144A12690243134B1A6104E0E2
:10526000114A12698243104B1A6170471249403942
:10527000086070470F49C86470470B49C871704790
:105280000948406A40F0807007494862704701460B
:105290000020054A92680A400AB1012000E000207F
:1052A0007047014988727047001002400000FFF803
:1052B000FFFFF6FE000042428004424200127A00E4
:1052C00000093D006C0000207C00002029B1504AFC
:1052D000128802434E4B1A8004E04D4A12888243E2
:1052E0004B4B1A8070474A48001D008840F0100060
:1052F0004749091D088070474548001D00884FF642
:10530000EF7108404249091D08807047002140485C
:105310001C300188001F008841EA0040704700B53A
:105320000246FFF7E0FF100C394918310880091DCB
:105330000A80FFF7E1FF00BD00B50246FFF7D3FF8B
:10534000C2F30340324908310880091D0A80FFF783
:10535000D3FF00BD00B50246FFF7C5FF100C2C4976
:1053600020310880091D0A80FFF7C6FF00BD00201C
:105370002749103109880907080B25491431098884
:105380000843704700BF2248001D008800F020003D
:105390000028F8D070471E48001D00884FF6F771AE
:1053A00008401B49091D088000BF1948001D0088DE
:1053B00000F008000028F8D0704701460020144A89
:1053C000121D12880A400AB1012000E00020704737
:1053D0000F49091D098881430D4A121D118070472C
:1053E000014600200A4A121D12880A40D0B2084A1B
:1053F00012880A4012B108B1012000E00020704775
:105400000349091D09888143014A121D1180704713
:105410000028004010B50446FE48844208D101210E
:10542000C014FFF709FF0021E014FFF705FFC4E0F7
:10543000B4F1804F08D101210846FFF70AFF00218F
:105440000120FFF706FFB8E0F348844208D10121AC
:105450000220FFF7FEFE00210220FFF7FAFEACE07B
:10546000EE48844208D101210420FFF7F2FE00211A
:105470000420FFF7EEFEA0E0E948844208D10121B4
:105480000820FFF7E6FE00210820FFF7E2FE94E087
:10549000E448844208D101211020FFF7DAFE002100
:1054A0001020FFF7D6FE88E0DF48844208D10121B2
:1054B0002020FFF7CEFE00212020FFF7CAFE7CE06F
:1054C000DA48844208D101214014FFF7B5FE0021DB
:1054D0006014FFF7B1FE70E0D548844209D1012184
:1054E000C804FFF7A9FE00214FF40020FFF7A4FE37
:1054F00063E0D048844209D101210805FFF79CFEF2
:1055000000214FF48010FFF797FE56E0CA4884420E
:1055100009D101214805FFF78FFE00214FF400104B
:10552000FFF78AFE49E0C548844208D101214020A6
:10553000FFF78FFE00214020FFF78BFE3DE0C048C3
:10554000844208D101218020FFF783FE00218020C2
:10555000FFF77FFE31E0BB48844208D1012180156E
:10556000FFF777FE0021A015FFF773FE25E0B64890
:10557000844209D101210804FFF75EFE00214FF4A7
:105580008030FFF759FE18E0B048844209D101216C
:105590004804FFF751FE00214FF40030FFF74CFEA6
:1055A0000BE0AB48844208D101218804FFF744FE98
:1055B00000214FF48020FFF73FFE10BD002202883B
:1055C000944B98420ED0994B98420BD0B0F1804F3B
:1055D00008D0914B984205D0904B984202D0904B06
:1055E000984204D14FF68F731A404B881A438D4B63
:1055F000984207D08C4B984204D04FF6FF431A4094
:10560000CB881A4302808B8883850B880385814B66
:1056100098420BD0854B984208D08B4B984205D0CE
:105620008A4B984202D08A4B984201D10B7A03866A
:1056300001238382704770B5002400220023058C6B
:105640004FF6FE7635400584028C8388048B4FF636
:105650008F752C40B51E2C400D882C43751E2A409A
:105660000D892A434D882A436A4DA8420BD06F4DBD
:10567000A84208D0744DA84205D0744DA84202D06B
:10568000734DA84213D14FF6F7752A404D892A432E
:105690004FF6FB752A408D882A434FF6FF652B4055
:1056A0004FF6FF552B408D892B43CD892B438380AB
:1056B0000483CD888586028470BD70B500240022E5
:1056C0000023058C4FF6EF7635400584028C8388E5
:1056D000048B48F6FF752C404FF6FF452C400D8893
:1056E0004FF6FF7606EA05252C434FF6DF752A4074
:1056F0000D8906EA05152A434D8806EA05152A4351
:10570000444DA84202D0494DA8421DD14FF67F75A5
:105710002A404D894FF6FF7606EA05152A434FF6D3
:10572000BF752A408D8806EA05152A434FF6FF35D6
:105730002B404FF2FF752B408D8906EA85052B43E0
:10574000CD8906EA85052B4383800483CD880587B0
:10575000028470BD70B5002400220023058C4FF632
:10576000FF6635400584028C8388848B4FF68F75E5
:105770002C404FF6FC752C400D882C434FF6FF55FE
:105780002A400D894FF6FF7606EA05252A434D8803
:1057900006EA05252A431F4DA84202D0234DA84200
:1057A0001DD14FF2FF752A404D894FF6FF7606EA6C
:1057B00005252A434FF6FF352A408D8806EA052540
:1057C0002A434EF6FF752B404DF6FF752B408D8911
:1057D00006EA05152B43CD8906EA05152B43838080
:1057E0008483CD888587028470BD70B50022002334
:1057F0000024058C4EF6FF7635400584038C8488A2
:10580000828B48F6FF752A404FF6FF452A400D88E7
:1058100020E00000002C014000040040000800408F
:10582000000C004000100040001400400034014013
:10583000004C01400050014000540140001800405D
:10584000001C004000200040004001400044014096
:10585000004801404FF6FF7606EA05252A434DF63B
:10586000FF752B400D8906EA05352B434D8806EA66
:1058700005352B43FA4DA84202D0FA4DA84208D173
:105880004BF6FF752C408D894FF6FF7606EA85159D
:105890002C4384808283CD88A0F84050038470BD5F
:1058A000828B4FF2FF331A408283828B4FF6FF7355
:1058B00003EA01231A4382837047F0B50C4615466C
:1058C000002200210026078C4EF6FF7C07EA0C0719
:1058D0000784828B018C4FF6FF7707EA043640F687
:1058E000FF473A404FF6FF7707EA05273A434FF65E
:1058F000FF7707EA03373A43D94FB8420ED0D94F62
:10590000B8420BD0B0F1804F08D0D74FB84205D085
:10591000D64FB84202D0D64FB84206D14DF6FF77E7
:10592000394046F48057394305E047F6FF57394080
:1059300044F48057394382830184F0BD828B4FF653
:10594000F3731A408283828B0A4382837047F0B5D7
:105950000C461546002200210026078C4FF6FF6CEE
:1059600007EA0C070784828B018C4FF6FF7707EA62
:1059700004264FF60C773A404FF6FF7707EA0317F5
:105980002F433A43B64FB8420ED0B64FB8420BD071
:10599000B0F1804F08D0B44FB84205D0B34FB842F1
:1059A00002D0B34FB84206D14FF6FF57394046F404
:1059B0008077394305E04FF2FF57394044F4807750
:1059C000394382830184F0BD028B4FF2FF331A40CA
:1059D0000283028B4FF6FF7303EA01231A4302830B
:1059E0007047F0B50C461546002200210026078CB2
:1059F0004FF6EF7C07EA0C070784028B018C4FF609
:105A0000FF7707EA041640F6FF473A404FF6FF7764
:105A100007EA03373A434FF6FF7707EA05273A4389
:105A20008F4FB8420ED08F4FB8420BD0B0F1804F9D
:105A300008D08D4FB84205D08C4FB84202D08C4F61
:105A4000B84206D14FF6DF77394046F010073943A8
:105A500005E04FF65F77394044F010073943028381
:105A60000184F0BD028B4FF6F3731A400283028B60
:105A70000A4302837047F0B50C4615460022002108
:105A8000068C4FF6FE773E400684028B018C4FF663
:105A90000C7632407E1C06EA03162E433243704ECB
:105AA000B0420ED06F4EB0420BD0B0F1804F08D054
:105AB0006D4EB04205D06D4EB04202D06C4EB04239
:105AC00006D14FF6FD76314044F00106314305E042
:105AD0004FF6F576314044F00106314302830184EC
:105AE000F0BD70B505460C465D4885420ED05D4858
:105AF00085420BD0B5F1804F08D05B48854205D078
:105B00005A48854202D05A48854200D100E000BF81
:105B1000208850B92389A28861882846FFF7ABFF07
:105B2000E1882846FFF79EFF25E0208804280AD157
:105B30002389A28861882846FFF753FFE188284619
:105B4000FFF742FF17E0208808280AD12389A2889E
:105B500061882846FFF7FBFEE1882846FFF7EEFE46
:105B600009E02389A28861882846FFF7A6FEE1881C
:105B70002846FFF795FE70BD2DE9F04105460C461D
:105B800000260127608808B9022600E00026A088C8
:105B9000012801D1022700E001272088A0B923892C
:105BA000A28861882846FFF766FFE1882846FFF74C
:105BB00059FF23893A4631462846FFF712FFE1880C
:105BC0002846FFF701FF13E02389A2886188284651
:105BD000FFF707FFE1882846FFF7F6FE23893A46DC
:105BE00031462846FFF747FFE1882846FFF73AFF8E
:105BF000BDE8F0810A884B881A438B881A43CB880A
:105C00001A430B891A434B891A438B891A43A0F80C
:105C1000442070474FF6FF71818000210180C180D0
:105C20004180017270470021018041808180C180E4
:105C3000018141818181C1817047002101804180C2
:105C4000012181800021C1800181704700210180F4
:105C500041808180C1800181418181817047000044
:105C6000002C0140003401400004004000080040C6
:105C7000000C004021B1028842F00102028004E0E1
:105C800002884FF6FE731A400280704731B1B0F8B7
:105C9000442042F40042A0F8442005E0B0F844203B
:105CA000C2F30E02A0F8442070471AB183890B4357
:105CB000838102E083898B438381704781827047AF
:105CC00041EA0203A0F8483070471AB183890B43B8
:105CD000838102E083898B438381704701894FF67A
:105CE000F8721140018170470A46002101894FF680
:105CF0008F73194011430181704730B504460D463A
:105D000029462046FFF7F0FF208940F00700208158
:105D100030BD2DE9F04104460D4616461F46602D64
:105D200006D13B46012231462046FFF75AFE05E0E8
:105D30003B46012231462046FFF79DFE294620467C
:105D4000FFF7D2FF208940F007002081BDE8F081F5
:105D500030B50C4600210189C9B24FF6FF7505EA3E
:105D60000325154325432943018130BD2DE9F04129
:105D700005460E4617469846002443463A463146A5
:105D80002846FFF7E5FF2C894FF6F870044044F0F1
:105D900007044FF68F70044044F070042C81BDE876
:105DA000F081F0B504460D4616461F463B46324686
:105DB00029462046FFF7CCFF208940F4804020810F
:105DC000F0BD0185828270470A46002101884FF6A6
:105DD0008F731940114301807047F0B50C4615468A
:105DE0001E460021002200230189028B038C4FF6FE
:105DF000F877394021434FF6FC473A4040F201170B
:105E00003A434FF6DD773B404FF6FF7707EA061738
:105E10002F433B43018102830384F0BD0A460021E6
:105E2000018B4FF68F7319401143018370470A4667
:105E30000021018B48F6FF7319404FF6FF7303EA08
:105E400002231943018370470A460021818B4FF6D4
:105E50008F7319401143818370470A460021818B5B
:105E600048F6FF7319404FF6FF7303EA0223194304
:105E70008183704721B1028842F08002028004E0F1
:105E800002884FF67F731A400280704721B18288E2
:105E900042F00402828004E082884FF6FB731A40CD
:105EA0008280704721B1828842F00802828004E03B
:105EB00082884FF6F7731A408280704721B182883A
:105EC00042F00102828004E082884FF6FE731A409D
:105ED000828070470A460021018B4FF6F773194004
:105EE0001143018370470A460021018B4FF2FF7373
:105EF00019404FF6FF7303EA0223194301837047E9
:105F00000A460021818B4FF6F773194011438183B4
:105F100070470A460021818B4FF2FF7319404FF6FC
:105F2000FF7303EA02231943818370470A46002165
:105F3000018B4FF6FB7319401143018370470A46EA
:105F40000021018B4FF6FF3319404FF6FF7303EA30
:105F500002231943018370470A460021818B4FF6C3
:105F6000FB7319401143818370470A460021818BDE
:105F70004FF6FF3319404FF6FF7303EA022319432C
:105F8000818370470A460021018B4FF67F731940C9
:105F90001143018370470A460021018BC1F30E01B2
:105FA0004FF6FF7303EA02231943018370470A4641
:105FB0000021818B4FF67F73194011438183704715
:105FC0000A460021818BC1F30E014FF6FF7303EAED
:105FD00002231943818370470A460021018C4FF642
:105FE000FD7319401143018470470A460021018C5A
:105FF0004FF6F77319401143018470470A46002198
:10600000018C4FF6DF7319404FF6FF7303EA02135A
:106010001943018470470A460021018C4FF67F73B3
:1060200019404FF6FF7303EA0213194301847047C6
:106030000A460021018C4FF6FF5319404FF6FF73BB
:1060400003EA02231943018470470A460021018CA8
:106050004FF2FF7319404FF6FF7303EA022319430F
:10606000018470470A460021018C4DF6FF731940E8
:106070004FF6FF7303EA023319430184704730B5CA
:10608000002301248C40A3B2048C9C430484048C20
:1060900002FA01F5ADB22C43048430BD30B50023C3
:1060A00004248C40A3B2048C9C430484048C02FA24
:1060B00001F5ADB22C43048430BD70B50346002019
:1060C00000241846183001258D40ACB21D8CA54324
:1060D0001D8409B1082909D100EB6100056825F08C
:1060E000700505600568154305600EE00D1FC5F3DA
:1060F0004E052844056825F4E045056005684FF61F
:10610000FF7606EA02263543056070BD21B102889C
:1061100042F00202028004E002884FF6FD731A404A
:106120000280704721B1028842F00402028004E03C
:1061300002884FF6FB731A400280704721B18288B3
:1061400042F08002828004E082884FF67F731A401A
:106150008280704702884FF6F7731A4002800288E7
:106160000A430280704782884FF68F731A408280FC
:1061700082880A438280704702894FF6F8731A407A
:10618000028102890A430281704702894FF67F73B8
:106190001A40028102890A43028170478184704754
:1061A0008185704781867047018770478187704776
:1061B000A0F84010704702884FF6FF431A40028053
:1061C00002880A43028070470146888E7047014664
:1061D000088F70470146888F70470146B1F840002C
:1061E00070470146888C70470146088D704702460B
:1061F0000020138A0B400BB1012000E00020704703
:10620000CA430282704730B50246002000230024B2
:10621000158A05EA0103958905EA010413B10CB159
:10622000012000E0002030BDCA4302827047000018
:1062300010B50446FB48844209D101218803FEF7CA
:10624000FBFF00214FF48040FEF7F6FF32E0F648F6
:10625000844209D101214804FEF7FBFF00214FF4DD
:106260000030FEF7F6FF25E0F048844209D1012115
:106270008804FEF7EEFF00214FF48020FEF7E9FFCF
:1062800018E0EB48844209D10121C804FEF7E1FF80
:1062900000214FF40020FEF7DCFF0BE0E5488442CC
:1062A00008D101210805FEF7D4FF00214FF480102A
:1062B000FEF7CFFF10BD2DE9F04786B005460E462C
:1062C0000024A24600BFA1460027B08900B100BF4C
:1062D0002F462C8A4CF6FF700440F08804432C8231
:1062E000AC894EF6F3100440B088318908437189B7
:1062F00008430443AC81AC8A4FF6FF400440B089A8
:106300000443AC8201A8FEF710FFC648874202D1C1
:10631000DDF810A001E0DDF80CA0A88900F4004031
:1063200040B10AEBCA0000EB0A1031684900B0FB2B
:10633000F1F807E00AEBCA0000EB0A1031688900A7
:10634000B0FBF1F86420B8FBF0F0040120096421EF
:1063500001FB1089A88900F4004040B1322000EB15
:10636000C900B0FBF1F000F00700044308E0322060
:1063700000EB09106421B0FBF1F000F00F000443C2
:106380002C8106B0BDE8F0874FF416510160002162
:106390008180C18001810C21418100218181704770
:1063A00010B502460020108A4FF2FF0318400B88F8
:1063B0004C8823438C882343CC8823431843108282
:1063C00010BD0021018041808180C180704721B1D2
:1063D000828942F40052828104E082894DF6FF7383
:1063E0001A4082817047F0B503460024002600253C
:1063F000002040F66A17B94200D100BF1846C1F329
:10640000421401F01F06012707FA06F5012C01D1FD
:106410000C3004E0022C01D1103000E014301AB12D
:1064200007682F43076002E00768AF430760F0BDCD
:106430001AB1838A0B43838202E0838A8B4383826F
:106440007047028A4FF6F0731A400282028A0A43AA
:106450000282704782894FF2FF731A4082818289DB
:106460000A438281704721B1828942F0020282810F
:1064700004E082894FF6FD731A4082817047028AD8
:106480004FF6DF731A400282028A0A430282704783
:1064900021B1028A42F48042028204E0028A4BF671
:1064A000FF731A4002827047C1F30802828070476E
:1064B00001468888C0F308007047818941F00101D6
:1064C00081817047028BD2B20283028B42EA0122A1
:1064D00002837047028B02F47F420283028B0A43DD
:1064E0000283704721B1828A42F02002828204E056
:1064F000828A4FF6DF731A408282704721B1828A06
:1065000042F01002828204E0828A4FF6EF731A4052
:106510008282704721B1828A42F00802828204E0BE
:10652000828A4FF6F7731A408282704721B18289BE
:1065300042F40042828103E08289C2F30E0282812A
:10654000704721B1828A42F40062828204E0828A2A
:106550004FF2FF731A4082827047828A4FF6FB73B4
:106560001A408282828A0A438282704721B1828ADB
:1065700042F00202828204E0828A4FF6FD731A40E2
:106580008282704702460020B1F5007F00D100BF33
:1065900013880B400BB1012000E00020704701F48C
:1065A0000072B2F5007F00D100BFCA43028070477D
:1065B00070B50246002400230025002040F66A162C
:1065C000B14200D100BFC1F3421501F01F03012603
:1065D00006FA03F3012D02D19689334006E0022D1D
:1065E00002D1168A334001E0968A33400C1201260C
:1065F00006FA04F41688344013B10CB1012000E00F
:10660000002070BD10B50022002340F66A14A1429C
:1066100000D100BF0A1201249440A3B2DC430480DD
:1066200010BD000000380140004400400048004018
:10663000004C00400050004001460020FE4A106817
:1066400000F03800084310607047FB49096821F0EA
:106650000801F94A11601146096801431160704749
:10666000F549096821F01001F34A116011460968E3
:10667000014311607047F148EF494860F0484860B5
:106680007047EE48EC494860ED4848607047EA487A
:10669000006940F08000E84908617047E6480069F9
:1066A00040F08000E449086170470420E249C9686D
:1066B00001F0010109B101200EE0DF49C96801F0D4
:1066C000040109B1022007E0DB49C96801F01001AB
:1066D00009B1032000E00420704700B502460423FE
:1066E000FFF7E3FF034603E0FFF7DFFF0346521E19
:1066F000012B01D1002AF7D102B90523184600BDAC
:1067000030B5044604254FF43020FFF7E6FF054678
:10671000042D17D1C848006940F00200C64908613D
:1067200008464461006940F0400008614FF43020A1
:10673000FFF7D3FF0546C048006941F6FD710840E8
:10674000BD490861284630BD10B504244FF43020FF
:10675000FFF7C3FF0446042C16D1B748006940F088
:106760000400B54908610846006940F0400008612E
:106770004FF43020FFF7B1FF0446AF48006941F6FF
:10678000FB710840AC490861204610BD00B50246C7
:106790000423FFF78AFF034603E0FFF786FF034663
:1067A000521E012B01D1002AF7D102B90523184648
:1067B00000BD10B504244FF43020FFF7E7FF044676
:1067C000042C16D19C48006940F004009A490861E5
:1067D0000846006940F0400008614FF43020FFF7A0
:1067E000D5FF04469448006941F6FB710840924980
:1067F0000861204610BD00208F49C96901F00201DF
:1068000009B1012000E00020704730B5A52504241F
:10681000FFF7F1FF00B100254FF43020FFF75DFFD7
:106820000446042C3AD185488349886084488860AE
:106830000846006940F0200008610846006940F001
:10684000400008614FF43020FFF747FF0446042C56
:106850001BD17948006941F6DF710840764908612B
:106860000846006940F01000086176480580E002A3
:10687000FFF733FF0446052C10D06F48006941F63E
:10688000EF7108406C49086108E0052C06D06A48A1
:10689000006941F6EF71084067490861204630BD44
:1068A00078B506460C46042500200090E802FFF764
:1068B00014FF0546042D24D15F48006940F0010013
:1068C0005D4908613480E802FFF707FF0546042DA3
:1068D00010D1B01C0090200C00990880E802FFF74E
:1068E000FCFE05465448006941F6FE7108405249D5
:1068F000086106E05048006941F6FE7108404E49C3
:106900000861284678BD70B504460D460426F0029D
:10691000FFF7E3FE0646042E11D14748006940F018
:106920000100454908612580F002FFF7D6FE0646C2
:106930004148006941F6FE7108403F490861304610
:1069400070BD70B505460E460424E002FFF7C5FE93
:106950000446042C17D13948374988603848886084
:106960000846006940F0100008612E80E002FFF741
:10697000B4FE0446052C06D02F48006941F6EF719D
:1069800008402D490861204670BD2DE9F0430446BA
:106990004FF6FF763746B046B1460425E443E6B2EB
:1069A000C4F30727C4F307484FEA1469E802FFF766
:1069B00094FE0546042D49D120481F49886020488F
:1069C00088600846006940F010000861FF2E06D07C
:1069D0001C4808300680E802FFF77FFE0546042DBC
:1069E00008D1FF2F06D017480A300780E802FFF7CA
:1069F00074FE0546042D0AD1B8F1FF0F07D01148E7
:106A00000C30A0F80080E802FFF767FE0546042D71
:106A10000AD1B9F1FF0F07D00A480E30A0F8009054
:106A2000E802FFF75AFE0546052D0FD0024800691F
:106A300041F6EF71084007E000200240230167455E
:106A4000AB89EFCD00F8FF1F664908612846BDE815
:106A5000F08330B5054604244FF43020FFF73DFEA7
:106A60000446042C41D160485E4988605F488860D4
:106A70000846006940F0200008610846006940F0BF
:106A8000400008614FF43020FFF727FE0446042C35
:106A900022D15448006941F6DF710840514908612C
:106AA0000846006940F0100008611DB100205049FF
:106AB000088002E0A5204E4908804FF43020FFF7FF
:106AC0000CFE0446052C10D04648006941F6EF71D3
:106AD00008404449086108E0052C06D04148006997
:106AE00041F6DF7108403F490861204630BDF0B5EE
:106AF00005460E46174604243B483A4988603B4801
:106B00008860E002FFF7E9FD0446042C19D13548FE
:106B1000006940F010003349086147F0F800304345
:106B200028433349891C0880E002FFF7D6FD04465C
:106B3000052C06D02B48006941F6EF710840294921
:106B400008612046F0BD2748C06980087047254885
:106B5000006A704700202349096801F0200109B14B
:106B6000012000E00020704729B11E4A126902434B
:106B70001C4B1A6104E01B4A12698243194B1A61CB
:106B8000704701460020012908D1164AD26902F057
:106B900001020AB1012008E0002006E0114AD26893
:106BA0000A400AB1012000E0002070470D49C8608A
:106BB000704704200B49C96801F0010109B10120A7
:106BC0000EE00849C96801F0040109B1022007E09C
:106BD0000449C96801F0100109B1032000E0042054
:106BE000704700000020024023016745AB89EFCDCC
:106BF00000F8FF1F70B50446254600262FE04FF42D
:106C00000051F748FEF78BF800BF00BF00BF00BF80
:106C100005F0800028B14FF40041F148FEF77DF8FF
:106C200004E04FF40041EE48FEF779F800BF00BFE2
:106C300000BF00BF00BF00BF00BF00BF00BF00BF5C
:106C400000BF00BF4FF40051E548FEF766F800BFF3
:106C500000BF00BF00BF6806050E701CC6B2082E3C
:106C6000CDDB70BD10B504464FF48051DC48FEF713
:106C700056F84FF40051DA48FEF751F800BF00BF54
:106C80004FF40041D648FEF74AF800BF00BF00BFEE
:106C900000BF00BF00BF00BF00BF00BF00BF00BFFC
:106CA00000BF4FF40051CE48FEF737F800BF00BFD9
:106CB0002046FFF79FFF4FF48051C948FEF72DF89B
:106CC00010BD10B504464FF48051C548FEF727F8B3
:106CD0004FF40051C248FEF722F800BF00BF4FF446
:106CE0000041BF48FEF719F800BF00BF00BF00BF5A
:106CF00000BF00BF00BF00BF00BF00BF00BF00BF9C
:106D00004FF40051B648FEF708F800BF00BF204618
:106D1000FFF770FF4FF48051B148FDF7FEFF10BD43
:106D200010B5AE20FFF79EFFD520FFF79BFF802018
:106D3000FFF798FFA820FFF795FF3F20FFF792FF8E
:106D4000D320FFF78FFF0020FFF78CFF4020FFF7D5
:106D500089FFAD20FFF786FF8B20FFF783FF8D2093
:106D6000FFF780FF1420FFF77DFFA120FFF77AFFD8
:106D7000C820FFF777FFDA20FFF774FF1220FFF734
:106D800071FF8120FFF76EFFFF20FFF76BFFD92017
:106D9000FFF768FF2220FFF765FFDB20FFF762FFA8
:106DA0004020FFF75FFFA420FFF75CFFA620FFF75E
:106DB00059FFAF20FFF756FF10BD10B5AE20FFF70B
:106DC00051FF8D20FFF74EFF1020FFF74BFF812072
:106DD000FFF748FFCF20FFF745FFA120FFF742FF55
:106DE000A620FFF73FFFA820FFF73CFF3F20FFF75B
:106DF00039FFD320FFF736FF0020FFF733FFD52000
:106E0000FFF730FF8020FFF72DFFD920FFF72AFF83
:106E1000F120FFF727FFC820FFF724FFDA20FFF754
:106E200021FF1220FFF71EFFDB20FFF71BFF402092
:106E3000FFF718FF8D20FFF715FF1420FFF712FF53
:106E4000AD20FFF70FFF8B20FFF70CFF6420FDF74D
:106E50003BF8AF20FFF706FF10BD00200CE000213B
:106E600006E000225F4B03EBC0135A544A1CD1B218
:106E70008029F6DB421CD0B20828F0DB70470020E6
:106E80000CE0002106E0FF22564B03EBC0135A54DE
:106E90004A1CD1B28029F6DB421CD0B20828F0DBB4
:106EA0007047014608687047F0B515467F2801DC39
:106EB0003F2900DDF0BD0C46CE1701EB5676C6F338
:106EC000C702CE1701EB5676F610A1EBC6070126D6
:106ED000BE40F3B24DB1434C04EBC214245C1C43DE
:106EE000404E06EBC216345408E03E4C04EBC2148C
:106EF000245C9C433B4E06EBC216345400BFD9E7DA
:106F00002DE9FF4F80460F4616460D9DBB46A6F164
:106F10002000C6B2B8F17F0F01DC3F2F03DD002057
:106F200004B0BDE8F08F039800284BD1002446E060
:106F30000C2D07D106EB46002B4901EB800010F821
:106F400004900CE0102D05D1284800EB061010F835
:106F5000049004E0264800EB461010F804904FF02F
:106F6000000A26E009F0800028B1394640460E9A12
:106F7000FFF79AFF09E00E9808B9012000E0002011
:106F8000024639464046FFF78FFF4FEA49604FEA15
:106F90001069781CC7B2A7EB0B00A84205D15F4669
:106FA00008F1010000F0FF0806E00AF1010000F01E
:106FB000FF0ABAF1080FD5DB00BF601CC4B2AC42B7
:106FC000B6DB6CE0002460E0039801281BD1102D93
:106FD00012D1084800EB461010F8049013E00000AE
:106FE000000C0140D40200203A1B0108AE1F01082A
:106FF0009E2501087AA40008202D04D1FE4800EB4C
:10700000C61010F80490039802280ED1102D05D157
:10701000FA4800EB461010F8049006E0202D04D149
:10702000F74800EBC61010F804904FF0000A26E075
:1070300009F0800028B1394640460E9AFFF734FF28
:1070400009E00E9808B9012000E000200246394608
:107050004046FFF729FF4FEA49604FEA1069781C64
:10706000C7B2A7EB0B00A84205D15F4608F10100AB
:1070700000F0FF0806E00AF1010000F0FF0ABAF193
:10708000080FD5DB00BF601CC4B205FB05F0C117BB
:1070900000EB5171B4EBE10F96DB284640E7082086
:1070A0003EE72DE9F04F80460D4616461F46AB469B
:1070B000A6F12000C6B2B8F17F0F01DC3F2D01DD43
:1070C000BDE8F08F002446E00C2F07D106EB460008
:1070D000CC4901EB800010F804900CE0102F05D192
:1070E000C94800EB061010F8049004E0C74800EB14
:1070F000461010F804904FF0000A26E009F08000D6
:1071000028B129464046099AFFF7CEFE09E00998C2
:1071100008B9012000E00020024629464046FFF75A
:10712000C3FE4FEA49604FEA1069681CC5B2A5EB7F
:107130000B00B84205D15D4608F1010000F0FF08E0
:1071400006E00AF1010000F0FF0ABAF1080FD5DBF2
:1071500000BF601CC4B2BC42B6DB00BFB0E710B5D4
:107160000246012000E050430B00A1F10104E1B20E
:10717000F9D110BD2DE9F84F0546884691461E46C7
:10718000DDF828A04FF0000B7F2D02DCB8F13F0F97
:1071900001DDBDE8F88F002431E0301B401EC1B294
:1071A0000A20FFF7DCFFB9FBF0F00A21B0FBF1F297
:1071B00001FB1207BBF1000F11D1701EA0420EDDC2
:1071C0005FB90120082101FB04510090C8B2534669
:1071D00030224146FFF765FF0FE04FF0010B012021
:1071E00007F13001CAB2082101FB04510090C8B276
:1071F00053464146FFF755FF00BF601CC4B2B4427E
:10720000CBDB00BFC5E72DE9FC4F0546884691461C
:107210001E46DDF830A04FF0000B7F2D02DCB8F1E8
:107220003F0F01DDBDE8FC8F002433E0301B401E22
:10723000C1B20A20FFF793FFB9FBF0F00A21B0FBBF
:10724000F1F201FB1207BBF1000F12D1701EA04238
:107250000FDD67B90120082101FB0451CDE900A031
:10726000C8B2302241460B9BFFF74AFE10E04FF0B8
:10727000010B012007F13001CAB2082101FB0451C2
:10728000CDE900A0C8B241460B9BFFF739FE00BF15
:10729000601CC4B2B442C9DB00BFC3E770B50024B0
:1072A00023E004F1B001C8B2FFF7DCFC1020FFF7C7
:1072B000D9FC5748006845F27861B1EB104F06D110
:1072C00054480088032802D10220FFF7CBFC002598
:1072D00007E0514901EBC411485DFFF7F2FC681C5F
:1072E000C5B2802DF5DB601CC4B2082CD9DB70BDA3
:1072F0002DE9F8430646884617461C46042C11D152
:1073000000250DE0102000907A5D05EB450106EBAD
:10731000C101C8B202234146FFF72CFF681CC5B269
:10732000A542EFDB072C10D100250CE010200090C7
:107330007A5D122101FB0561C8B202233021FFF7FB
:1073400019FF681CC5B2A542F0DBFFF7A7FFBDE837
:10735000F8832DE9FC4304460D4616469946099FDD
:107360007F2C01DC3F2D01DDBDE8FC8322E0782C81
:1073700002DD0024E819C5B2C7F14000A84204DAD2
:10738000002004460546FFF768FD0120CDE90070A6
:1073900032784B4629462046FFF7B2FD8046B9F1C8
:1073A000000F03D104F10800C4B202E004EB0800AE
:1073B000C4B2761C30780028D9D100BFD4E7F8B524
:1073C00004460D4616461F467F2C01DC3F2D00DD8E
:1073D000F8BD2CE0782C02DD0024E819C5B2C7F115
:1073E0004000A84204DA002004460546FFF735FDB8
:1073F00001200090327811E05AB00008DADF00086E
:10740000BAEB00083A1B0108AE1F01089E250108CF
:107410008000002084000020D40200203B46294642
:107420002046FFF73EFE04F10800C4B2761C307817
:107430000028CFD100BFCBE72DE9F84F05460C4619
:1074400090461E46DDF8289000947F2D01DC3F2CED
:1074500001DDBDE8F88F00272CE099F800A009F1C4
:1074600001094FF0000B20E00AF0800028B121460E
:1074700028460B9AFFF718FD09E00B9808B9012080
:1074800000E00020024621462846FFF70DFD4FEAA6
:107490004A0A601CC4B20098201AB04203D1009C72
:1074A000681CC5B204E00BF1010BBBF1080FDBDB7C
:1074B00000BF7F1C08FB06F0C11700EB5171B7EB52
:1074C000E10FCADB00BFC4E72DE9F04F05460E46C9
:1074D00090469946DDE909AB782D01DC3C2E01DDB3
:1074E000BDE8F08FBAF1000F13D034460CE02F4600
:1074F00005E0E1B2F8B20122FFF7D6FC7F1C05EBF4
:107500000800B842F5DC641C06EB0900A042EEDC82
:1075100029E0344623E02F461BE0B44204D006EBBA
:107520000900401EA04205D1E1B2F8B20122FFF7E6
:10753000BBFC0DE0E1B2F8B20122FFF7B5FC05EBB0
:107540000800401EB84200D107E005EB0800871E86
:107550007F1C05EB0800B842DFDC00BF641C06EBB3
:107560000900A042D7DC00BFBAE77CB504463A2642
:107570008C480068C00B48B18B48007878B18A48C5
:10758000007884420BDD8848047808E0864800785B
:1075900028B185480078844201DA8348047882481B
:1075A0000470642C00DB63240A2094FBF0F0C4B266
:1075B00000250AE000200121CDE90010F1B20423EA
:1075C0000822FFF781FFB61F6D1CA542F2DD0AE01D
:1075D00001200090F1B20423082201900020FFF75F
:1075E00073FFB61F6D1C0A2DF2DB7CBD10B54FF486
:1075F00080716C480838FDF792FB6420FCF764FC4E
:107600004FF4807167480838FDF787FB0A20FCF7C4
:107610005BFC10BD2DE9F04704460E461746FFF708
:107620002AF8A4F1006A4FEA9A284FF0006101EBB2
:107630008820FFF765F8A146002508E036F8151008
:107640004846FFF760F909F10209681C85B2BD429E
:10765000F4DBFFF71CF8BDE8F08770B5534D00244C
:1076600006E02888524921F81400AD1C601C84B241
:10767000B4F5007FF5DB03204D49A1F8FC034D492B
:10768000088000240BE0E0B201220021FFF70CFC8F
:10769000E0B201223F21FFF707FC601C84B2802C7E
:1076A000F1DB00240BE0E1B201220020FFF7FCFB3C
:1076B000E1B201227F20FFF7F7FB601C84B23F2C70
:1076C000F1DBFFF7EBFD00203B49087041F2883009
:1076D000FCF7FAFB38480078012808DB45F27860AF
:1076E0003349A1F8FE0300043449086007E041F281
:1076F00034202F49A1F8FE030004304908604FF4FC
:1077000000722B492948FFF785FF70BD10B5FFF7C0
:107710006DFFFFF752FB0A20FCF7D6FB2848FFF766
:10772000C0FB264908600846008822490880FFF708
:1077300094FBFFF7B3FD1F480088032801D0FFF733
:107740008CFF10BD38B5102001231EA20146009009
:10775000FFF7FFFDFFF7A2FD4FF4FA60FCF7B4FB63
:10776000002411E0FFF779FBFFF798FD4FF4FA7062
:10777000FCF7AAFBFFF783FBFFF790FD4FF4FA70CD
:10778000FCF7A2FB601CC4B2032CEBDBFFF765FB2C
:10779000102001230FA201460090FFF7DAFDFFF74A
:1077A0007DFD38BD0808014086000020002C00083F
:1077B000D40600208400002000000020800000206B
:1077C000FC2F00086F6C656420746573742E2E2E78
:1077D000000000006F6C65642074657374206F6B2B
:1077E0002100000010B54FF402714A4802F0FCFC81
:1077F000002048494870488010BD2DE9F0410546F9
:107800000C4617462E460CE031784348FEF74CFEF6
:10781000761C641E00BF40213F48FEF7B3FE0028DF
:10782000F9D0002CF0D10020BDE8F08110B504465D
:1078300021463948FEF738FE00BF40213648FEF7A2
:10784000A1FE0028F9D010BD10B53248C18808301B
:10785000445C3049C988481CC11700EBD15149121A
:10786000A0EB41218AB22B49CA8008464088401EBD
:107870004880214629A002F0CAFB204610BD2DE910
:10788000F04105460C461646FCF702FB80462F46A3
:1078900014E020484088002804DD641EFFF7D4FF70
:1078A00007F8010B31464046FCF7F5FA30B11CA051
:1078B00002F0ADFB4FF0FF30BDE8F081002CE8D1C5
:1078C0000020F9E701461348828808308154114AA4
:1078D0009288501CC21700EBD2525212A0EB4222E7
:1078E00093B20C4A938010464088401C50807047E9
:1078F00000210848C18081800020064948807047E7
:107900000448408808B1012070470020FCE7014886
:1079100070470000D40A0020004400402025780071
:1079200072656365697665206472762074696D6539
:107930006F75740D0A0000007FB5102400208DF8CB
:1079400000008DF80100FF208DF8020003208DF863
:107950000300FD208DF80400D4208DF805001620CA
:107960008DF80600F0208DF807009DF805009DF8C1
:10797000061008449DF807100844C5B2E843401CAF
:10798000C0B28DF8080000208DF80900E1A002F0D7
:107990003EFB00220A216846FFF72FFF64222146A2
:1079A0006846FFF76CFF002802DA002004B070BDC3
:1079B0000120FBE710B58AB055208DF810008DF836
:1079C000110000208DF812008DF813008DF81400BE
:1079D0008DF815008DF816008DF817008DF8180039
:1079E0008DF819008DF81A008DF81B008DF81C0019
:1079F0008DF81D008DF81E008DF81F00FF208DF8FA
:107A0000200003208DF82100FD208DF82200D420D5
:107A10008DF8230014208DF8240001208DF8250016
:107A200017208DF8260000208DF82700002218214D
:107A300004A8FFF7E2FE0F244FF47A72214668464D
:107A4000FFF71DFF002802DA00200AB010BD012058
:107A5000FBE7B449B4490160704710B50446FFF72D
:107A6000C1FE10BD10B50446FFF7A4FF10BD2DE9FF
:107A7000F04782460D4614461E460027FCF708FADA
:107A80008146A84615E0A9484088002805DD641E07
:107A9000FFF7DAFE08F8010B7F1C31464846FCF779
:107AA000FAF930B1A2A002F0B2FA4FF0FF30BDE80F
:107AB000F087002CE7D178B2F9E71FB50446A2A100
:107AC00003C9CDE90201A2A002F0A1FA64230622B3
:107AD00069462046FFF7CBFF002806DC9EA002F097
:107AE00096FA6FF0010004B010BD062202A96846A4
:107AF00002F0B8FA38B19BA002F089FAFFF7F8FE5D
:107B00004FF0FF30EFE70020EDE72DE9F84F824618
:107B10000C4615461E46DDF8288020788AF80400B9
:107B20000020FFF783FE0020FFF780FEFF20FFF715
:107B30007DFE05EB0800401C00F0FF0B5846FFF7E8
:107B400075FE6FEA0B01491CC8B2FFF76FFED42027
:107B5000FFF76CFE4FF0D40985A002F058FA00221E
:107B600029462046FFF749FE002709E0E05D48442A
:107B700000F0FF09E15D81A002F049FA781CC7B26C
:107B8000AF42F3DB002241463046FFF736FE0027C6
:107B900009E0F05D484400F0FF09F15D77A002F0D4
:107BA00036FA781CC7B24745F3DB6FEA0900401C80
:107BB000C0B200900098FFF739FE0020FFF736FEB4
:107BC0005046FFF77AFFBDE8F88F2DE9FC470646DF
:107BD0000F46904699466AA002F019FA4B460322D6
:107BE00001A93046FFF743FF002803DC6FF00100D6
:107BF000BDE8FC879DF8040030B99DF8050018B970
:107C00009DF80600FF2805D060A002F000FA6FF092
:107C10000200EDE74B46022269463046FFF727FF98
:107C2000002802DC6FF00100E2E79DF800009DF8FB
:107C300001100844C0B228B158A002F0E8F96FF072
:107C40000200D5E79DF80000801EC0B28DF800004C
:107C50009DF80000404502DD6FF00300C8E7307971
:107C6000401CC4B24B46022201A93046FFF7FFFE7A
:107C7000002802DC6FF00100BAE79DF80400D52867
:107C800003D19DF80500A04205D048A002F0BFF93D
:107C90006FF00200ACE79DF800204B4639463046B5
:107CA000FFF7E5FE9DF80010884202D06FF001005A
:107CB0009EE704F1D500C5B2002004E0395C2944F8
:107CC000CDB2411CC8B29DF800108142F6DC4B4693
:107CD000022201A93046FFF7CAFE002802DC6FF03D
:107CE000010085E79DF804002844C0B210B99DF852
:107CF000050038B131A002F08AF9FFF7F9FD6FF005
:107D0000020075E79DF8001030A002F080F99DF8A0
:107D100000006DE7504F57455220444F574E0D0A13
:107D20000000000088350108A0350108D40A0020B1
:107D300072656365697665206472762074696D6525
:107D40006F75740D0A0000000000FF00FF000000C6
:107D50000D0A41636B3A200054696D656F75740AB2
:107D600000000000496E76616C69640D0A00000035
:107D70000D0A57726974653A2000000020257800CA
:107D80000A526561643A202000000000507265616B
:107D90006D626C65206572726F7200004C656E6773
:107DA0007468206572726F7200000000436F6D6D21
:107DB000616E64206572726F7200000043686563D3
:107DC0006B73756D206572726F72000020202564E0
:107DD0000D0A000070B504460D462946204600F005
:107DE0008FFB70BDF8B504460E46012004F8540F11
:107DF00000206072A072543C00BFF8A002F007F9A6
:107E000094F85C202046A16D00F09AFB022802DA6B
:107E10004FF0FF30F8BDA06D02F0F4FA0546042DD6
:107E200000D120E05DB9002003460222F249009013
:107E3000204600F073FB28B96FF00100EAE76FF00D
:107E40000200E7E7ED480078401CC0B2EB4908703B
:107E5000052807DBEAA002F0DAF80020E7490870FD
:107E6000801ED7E7C9E700BF0020E4490870EA4850
:107E700002F0CDF8A06D02F0BCFA84F85500A06DB8
:107E800002F0BBFA84F8560094F85600012101EB89
:107E90008000A16D087094F855008030A16D487085
:107EA00000200090034602222046A16D00F036FB20
:107EB00010B96FF00100ADE70120ABE7F8B504465B
:107EC0000E46D6A002F0A3F800BF94F85C2020462E
:107ED000A16D00F035FB022802DA4FF0FF30F8BD4B
:107EE000A06D02F08FFA0546052D00D110E05DB9B6
:107EF000002003460222C0490090204600F00EFBFD
:107F000028B96FF00100EAE76FF00200E7E7DCE76D
:107F100000BFC8A002F07BF894F85600012101EBE5
:107F20008000A16D087094F85500C030A16D4870B4
:107F300000200090034602222046A16D00F0EEFAD8
:107F400010B96FF00100CAE70120C8E770B586B02C
:107F500004460E46002004F8540F0420A070202090
:107F6000607000206072A072C0A002F050F8227A07
:107F70006168543C204600F0E3FA022803DA4FF02F
:107F8000FF3006B070BDA06D02F03CFA054615B199
:107F90004FF0FF30F5E71120A16D08702020A16D92
:107FA00048701422B8A101A802F0ECF806208DF860
:107FB00004000F208DF80500B8A002F028F8112069
:107FC000009001AB02222046A16D00F0A7FA10B983
:107FD0006FF00100D5E700BFB6A002F018F894F8E2
:107FE0005C202046A16D00F0ABFA022802DA4FF0C7
:107FF000FF30C6E7A06D02F005FA0546062D00D158
:1080000013E075B9B1A002F002F800200346022285
:1080100079490090204600F081FA28B96FF00100FC
:10802000AFE76FF00200ACE7D6E700BF0120A8E79A
:10803000F8B504460E46ABA001F0E9FF94F85C20C9
:108040002046A16D00F07CFA022802DA4FF0FF30E2
:10805000F8BDA06D02F0D6F9054615B14FF0FF301E
:10806000F6E71120A16D08706020A16D4870A4A0F2
:1080700001F0CDFF00200090034602222046A16DB2
:1080800000F04CFA10B96FF00100E1E700BFA1A0C9
:1080900001F0BDFF94F85C202046A16D00F050FA7D
:1080A000022802DA4FF0FF30D2E7A06D02F0AAF901
:1080B0000546062D00D114E0072D0ED19BA001F03E
:1080C000A6FF0020034602224B490090204600F004
:1080D00025FA28B96FF00100BAE76FF00200B7E7A0
:1080E000D5E700BF0120B3E72DE9FC4704468846E9
:1080F00015469946DDF828A094F8540060B191A087
:1081000001F085FF032201A9204600F019FA022898
:1081100002D00020BDE8FC8794F85C10E81C814286
:1081200001DA0020F6E7691E48B206E018F80020E0
:10813000C11CA36D5A54411E48B20028F6DA94F8C7
:108140005600032101EB8000A16D087094F85500E2
:10815000A16D487094F85E0094F85D1000EB01107A
:10816000A16D88707CA001F052FFE81CC2B2CDF86E
:1081700000A04B462046A16D00F0D0F908B90020C0
:10818000C8E794F85D00401C84F85D0000BF77A04C
:1081900001F03DFF94F85C202046A16D00F0D0F97D
:1081A0000746022F01DA0020B4E7A06D02F02AF999
:1081B00006460D2E00D1F2E06EB971A001F027FF46
:1081C0000020034602220C490090204600F0A6F948
:1081D00010B900209EE7DFE0E0E000000D0A333A2E
:1081E0007761697420666F72206120434F4E4E455F
:1081F000435420504455000087000020890000208F
:108200000D0A332E323A4572726F7220434F4E4E32
:108210004543542050445500C035010877616974C6
:1082200020666F7220612044495343205044550A10
:1082300000000000707574206120444D284469736B
:10824000636F6E6E656374204D6F646529205044C2
:108250005520746F20726573706F6E73652074683B
:10826000652044495343205044550A000D0A333ACF
:1082700074727920746F2067657420612053594DA2
:108280004D20504455000000202075726E3A6E66F5
:10829000633A736E3A736E65700000000D0A343AEB
:1082A000707574206120434F4E4E45435420504416
:1082B000550000000D0A353A7761697420666F72C7
:1082C000206120434320504455000000352E323AAF
:1082D0005044555F53594D4D203D3D207479706594
:1082E000000000000D0A31313A74727920746F2059
:1082F00067657420612053594D4D2050445500004E
:108300000D0A31323A70757420612044495343207C
:10831000504455000D0A31333A7761697420666F15
:1083200072206120444D2050445500000D0A313325
:108330002E323A5044555F444D203D3D20747970B3
:10834000650000000D0A373A4765742061205359D3
:108350004D4D2050445500000D0A383A577269744B
:1083600065206E7320616E64206E72000D0A39A361
:10837000BA476574206120525220504455000000D5
:108380000D0A392E32A3BA5044555F53594D4D2032
:108390003D3D2074797065000020BBE6F7E600BF24
:1083A0003FA001F034FE0020034602224249009023
:1083B000204600F0B3F808B90020ABE60120A9E69A
:1083C0002DE9F84304460D46914600BF3BA001F05D
:1083D0001EFE4A462946204600F0B2F887B2022F18
:1083E00003DA4FF0FF30BDE8F883284602F00AF8C0
:1083F00006460C2E00D113E076B935A001F007FE39
:108400000020034602222C490090204600F086F806
:1084100028B96FF00100E6E76FF00200E3E7D5E767
:1084200000BFF81E00F0FF0800BF2878801084F815
:10843000550000BF687800F03F0084F8560094F8BB
:108440005600032101EB8000A16D087094F85500DF
:108450004030A16D4870A878012101EB2010A16D7A
:10846000887021A001F0D3FD002000900346032274
:108470002046A16D00F052F810B96FF00100B2E78C
:10848000002004E0C11C695C2954411CC8B240456D
:10849000F8DB94F85E00401C84F85E004046A2E7DA
:1084A0000D0A3130A3BA57726974652053594D4D86
:1084B0005F50445500000000870000200D0A353A47
:1084C00047657420494E464F205044550000000037
:1084D0000D0A352E323A5044555F53594D4D203DCB
:1084E0003D207479706500000D0A363A5772697440
:1084F00065207373617020616E6420647361700025
:1085000070B504460D46204600F026F8204600F0DF
:108510002EF82946204600F052F970BD2DE9F843A7
:1085200004460D4616461F46DDF820803B4632467F
:1085300029462046CDF8008000F08CF9BDE8F8838C
:1085400070B504460D46164632462946204600F0D0
:1085500047F970BD0165704710B50446206D02688B
:1085600011688847206D02685168884710BD38B58A
:1085700004461420E0730121217414216174012147
:10858000A174FAA001F043FD00200090206D016865
:10859000002304228D6804F10F01A84708B10020D0
:1085A00038BD206D01684FF47A734022CD6804F124
:1085B0000F01A847002801DD0120F1E70020EFE7C7
:1085C000F8B504460220E07300200090206D016899
:1085D000002301228F6804F10F01B84708B1002081
:1085E000F8BD206D01684FF47A734022CF6804F122
:1085F0000F01B8470646002E01DA0020F0E7E57BC0
:108600002D02207C05432D02607C05432D02A07CB9
:1086100005432846E4E7F8B504460D4645F0140541
:108620000E20E07345F08001217400216174D3A015
:1086300001F0EDFC217CD6A001F0E9FCD5A001F011
:10864000E6FC00200090206D0168002303228E6864
:1086500004F10F01B04708B10020F8BD206D01689A
:108660004FF47A734022CE6804F10F01B04700281E
:1086700001DD0120F1E70020EFE738B504460C20CA
:10868000E07300200090206D0168002301228D68B6
:1086900004F10F01A84708B1002038BD206D016822
:1086A0004FF47A734022CD6804F10F01A847B5A0BA
:1086B00001F0ADFCA17DB6A001F0A9FCB6A001F0CF
:1086C000A6FCE17DB2A001F0A2FCB6A001F09FFCE7
:1086D000217EAFA001F09BFCAEA001F098FCE07BF6
:1086E000DBE7F8B504460D463220E073052121741E
:1086F000FF2161740121A174E57400200090206DB8
:108700000168002305228E6804F10F01B04708B10B
:108710000020F8BD206D01684FF47A734022CE68C6
:1087200004F10F01B047002801DD0120F1E700202E
:10873000EFE7F8B504460E463220E07305212174B8
:1087400000200090206D0168002302228D6804F152
:108750000F01A84708B10020F8BD0020FCE72DE973
:10876000F84304460E461746984691A001F04FFC88
:1087700000200090206D016800233A46D1F808C01F
:108780003146E0470546002D03DA4FF0FF30BDE8E3
:10879000F883206D016843464022D1F80CC004F1F3
:1087A0000F01E04745B2002D01DD0120EFE715F193
:1087B000020F01D10020EAE76FF00100E7E730B5D2
:1087C0008BB005460C462C227EA1684601F0DAFCEF
:1087D00023462C2269462846FFF7C1FF0BB030BD67
:1087E0002DE9F84305460C4690468620207000206F
:1087F0000090286D016800230122D1F808C02146AD
:10880000E04718B14FF0FF30BDE8F883286D0168EC
:108810004FF4E1734246D1F80CC02146E0470646CA
:10882000002E01DC3046EFE7701E87B2207830B1B1
:1088300021786FA001F0EBFB6FF00400E4E700206B
:1088400004E0411C615C2154411CC8B2B842F8DB11
:1088500038B2D9E72DE9F84304460E4615461F46BF
:10886000DDF820803F2D19D91FB904F10F00864291
:1088700005D165A001F0CBFB0020BDE8F8838E2078
:10888000E0730095206D016833460122D1F808C0DD
:1088900004F10F01E047F0B10020EEE7691E48B295
:1088A00006E0335C04F10F01421C8B54411E48B2B8
:1088B0000028F6DA8E20E073691CCAB2CDF8008079
:1088C000206D01683B46D1F808C004F10F01E04774
:1088D00008B10020D1E7206D01684FF4E173402218
:1088E000D1F80CC004F10F01E047002801DA0020A4
:1088F000C3E7E07B08B10020BFE70120BDE7F8B582
:1089000004460D465220E073257400200090206D2F
:108910000168002302228E6804F10F01B04708B1FC
:108920000020F8BD206D01684FF47A734022CE68B4
:1089300004F10F01B047F4E7F8B504464A20E073AC
:10894000012121740021617436A001F060FB002038
:108950000090206D0168002303228E6804F10F014E
:10896000B04708B10020F8BD68E000000D0A313AB8
:1089700053414D436F6E6669670A00005772697410
:10898000696E67205033204750494F3A200000005D
:10899000202578000A0000005037204750494F3A00
:1089A0002000000049304931204750494F3A20000B
:1089B0000D0A323A496E6974417354617267657485
:1089C000000000008C0000000000004001FE0FBB12
:1089D000BAA6C9890000000000000000FFFF01FEE8
:1089E0000FBBBAA6C98900000646666D01011000DA
:1089F000737461747573206973206E6F74206F6B6C
:108A00003A2025780D0A0000746753657444617438
:108A1000613A62756666657220746F6F20736D616E
:108A20006C6C0A00696E4C697374207061737369B1
:108A30007665207461726765740D0A00206D0168A7
:108A400047F230534022CE6804F10F01B04705468B
:108A5000002D01DA0020F8BDE07B012801D00020C4
:108A6000F9E7207CA073207D042809D1E071607DA6
:108A70002070A07D6070E07DA070207EE07011E02D
:108A8000207D07280ED1E071607D2070A07D607090
:108A9000E07DA070207EE070607E2071A07E60711D
:108AA000E07EA0710120D6E72DE9F84304460E468A
:108AB00017469846DDF820904A20E0730121217482
:108AC000667400200090206D016800230322D1F815
:108AD00008C004F10F01E04710B10020BDE8F883A1
